{
  "contractName": "Crowdsale",
  "abi": [
    {
      "constant": true,
      "inputs": [],
      "name": "discountPublicSaleRoundThree",
      "outputs": [
        {
          "name": "",
          "type": "uint256"
        }
      ],
      "payable": false,
      "stateMutability": "view",
      "type": "function"
    },
    {
      "constant": true,
      "inputs": [],
      "name": "publicSaleRoundThreeTokenSold",
      "outputs": [
        {
          "name": "",
          "type": "uint256"
        }
      ],
      "payable": false,
      "stateMutability": "view",
      "type": "function"
    },
    {
      "constant": true,
      "inputs": [],
      "name": "tokensForSale",
      "outputs": [
        {
          "name": "",
          "type": "uint256"
        }
      ],
      "payable": false,
      "stateMutability": "view",
      "type": "function"
    },
    {
      "constant": true,
      "inputs": [],
      "name": "tokensForPublicSale",
      "outputs": [
        {
          "name": "",
          "type": "uint256"
        }
      ],
      "payable": false,
      "stateMutability": "view",
      "type": "function"
    },
    {
      "constant": true,
      "inputs": [],
      "name": "publicSaleRoundFiveTokenSold",
      "outputs": [
        {
          "name": "",
          "type": "uint256"
        }
      ],
      "payable": false,
      "stateMutability": "view",
      "type": "function"
    },
    {
      "constant": true,
      "inputs": [],
      "name": "discountPublicSaleRoundOne",
      "outputs": [
        {
          "name": "",
          "type": "uint256"
        }
      ],
      "payable": false,
      "stateMutability": "view",
      "type": "function"
    },
    {
      "constant": true,
      "inputs": [],
      "name": "wallet",
      "outputs": [
        {
          "name": "",
          "type": "address"
        }
      ],
      "payable": false,
      "stateMutability": "view",
      "type": "function"
    },
    {
      "constant": true,
      "inputs": [],
      "name": "crowdSaleStarted",
      "outputs": [
        {
          "name": "",
          "type": "bool"
        }
      ],
      "payable": false,
      "stateMutability": "view",
      "type": "function"
    },
    {
      "constant": true,
      "inputs": [],
      "name": "discountPublicSaleRoundFour",
      "outputs": [
        {
          "name": "",
          "type": "uint256"
        }
      ],
      "payable": false,
      "stateMutability": "view",
      "type": "function"
    },
    {
      "constant": true,
      "inputs": [],
      "name": "discountPublicSaleRoundFive",
      "outputs": [
        {
          "name": "",
          "type": "uint256"
        }
      ],
      "payable": false,
      "stateMutability": "view",
      "type": "function"
    },
    {
      "constant": false,
      "inputs": [],
      "name": "acceptOwnership",
      "outputs": [],
      "payable": false,
      "stateMutability": "nonpayable",
      "type": "function"
    },
    {
      "constant": true,
      "inputs": [],
      "name": "tokensForPrivateSale",
      "outputs": [
        {
          "name": "",
          "type": "uint256"
        }
      ],
      "payable": false,
      "stateMutability": "view",
      "type": "function"
    },
    {
      "constant": true,
      "inputs": [],
      "name": "owner",
      "outputs": [
        {
          "name": "",
          "type": "address"
        }
      ],
      "payable": false,
      "stateMutability": "view",
      "type": "function"
    },
    {
      "constant": true,
      "inputs": [],
      "name": "softCap",
      "outputs": [
        {
          "name": "",
          "type": "uint256"
        }
      ],
      "payable": false,
      "stateMutability": "view",
      "type": "function"
    },
    {
      "constant": true,
      "inputs": [],
      "name": "Paused",
      "outputs": [
        {
          "name": "",
          "type": "bool"
        }
      ],
      "payable": false,
      "stateMutability": "view",
      "type": "function"
    },
    {
      "constant": true,
      "inputs": [],
      "name": "publicSaleRoundTwoTokenSold",
      "outputs": [
        {
          "name": "",
          "type": "uint256"
        }
      ],
      "payable": false,
      "stateMutability": "view",
      "type": "function"
    },
    {
      "constant": true,
      "inputs": [],
      "name": "discountPublicSaleRoundTwo",
      "outputs": [
        {
          "name": "",
          "type": "uint256"
        }
      ],
      "payable": false,
      "stateMutability": "view",
      "type": "function"
    },
    {
      "constant": true,
      "inputs": [],
      "name": "totalRaisedInCents",
      "outputs": [
        {
          "name": "",
          "type": "uint256"
        }
      ],
      "payable": false,
      "stateMutability": "view",
      "type": "function"
    },
    {
      "constant": true,
      "inputs": [
        {
          "name": "",
          "type": "address"
        }
      ],
      "name": "whitelistedContributors",
      "outputs": [
        {
          "name": "",
          "type": "bool"
        }
      ],
      "payable": false,
      "stateMutability": "view",
      "type": "function"
    },
    {
      "constant": true,
      "inputs": [],
      "name": "newOwner",
      "outputs": [
        {
          "name": "",
          "type": "address"
        }
      ],
      "payable": false,
      "stateMutability": "view",
      "type": "function"
    },
    {
      "constant": true,
      "inputs": [],
      "name": "privateSaletokenSold",
      "outputs": [
        {
          "name": "",
          "type": "uint256"
        }
      ],
      "payable": false,
      "stateMutability": "view",
      "type": "function"
    },
    {
      "constant": true,
      "inputs": [],
      "name": "updateTime",
      "outputs": [
        {
          "name": "",
          "type": "uint256"
        }
      ],
      "payable": false,
      "stateMutability": "view",
      "type": "function"
    },
    {
      "constant": true,
      "inputs": [
        {
          "name": "",
          "type": "address"
        }
      ],
      "name": "PrivateSaleInvestor",
      "outputs": [
        {
          "name": "",
          "type": "bool"
        }
      ],
      "payable": false,
      "stateMutability": "view",
      "type": "function"
    },
    {
      "constant": false,
      "inputs": [
        {
          "name": "_newOwner",
          "type": "address"
        }
      ],
      "name": "transferOwnership",
      "outputs": [],
      "payable": false,
      "stateMutability": "nonpayable",
      "type": "function"
    },
    {
      "constant": true,
      "inputs": [],
      "name": "publicSaleRoundFourTokenSold",
      "outputs": [
        {
          "name": "",
          "type": "uint256"
        }
      ],
      "payable": false,
      "stateMutability": "view",
      "type": "function"
    },
    {
      "constant": true,
      "inputs": [],
      "name": "hardCap",
      "outputs": [
        {
          "name": "",
          "type": "uint256"
        }
      ],
      "payable": false,
      "stateMutability": "view",
      "type": "function"
    },
    {
      "constant": true,
      "inputs": [],
      "name": "token",
      "outputs": [
        {
          "name": "",
          "type": "address"
        }
      ],
      "payable": false,
      "stateMutability": "view",
      "type": "function"
    },
    {
      "constant": true,
      "inputs": [],
      "name": "ethPrice",
      "outputs": [
        {
          "name": "",
          "type": "uint256"
        }
      ],
      "payable": false,
      "stateMutability": "view",
      "type": "function"
    },
    {
      "constant": true,
      "inputs": [],
      "name": "publicSaleRoundOneTokenSold",
      "outputs": [
        {
          "name": "",
          "type": "uint256"
        }
      ],
      "payable": false,
      "stateMutability": "view",
      "type": "function"
    },
    {
      "inputs": [
        {
          "name": "_newOwner",
          "type": "address"
        },
        {
          "name": "_wallet",
          "type": "address"
        },
        {
          "name": "_token",
          "type": "address"
        },
        {
          "name": "_ethPriceInCents",
          "type": "uint256"
        }
      ],
      "payable": false,
      "stateMutability": "nonpayable",
      "type": "constructor"
    },
    {
      "payable": true,
      "stateMutability": "payable",
      "type": "fallback"
    },
    {
      "anonymous": false,
      "inputs": [
        {
          "indexed": false,
          "name": "nextStep",
          "type": "string"
        }
      ],
      "name": "LogConstructorInitiated",
      "type": "event"
    },
    {
      "anonymous": false,
      "inputs": [
        {
          "indexed": false,
          "name": "description",
          "type": "string"
        }
      ],
      "name": "newOraclizeQuery",
      "type": "event"
    },
    {
      "anonymous": false,
      "inputs": [
        {
          "indexed": false,
          "name": "myid",
          "type": "bytes32"
        },
        {
          "indexed": false,
          "name": "price",
          "type": "string"
        },
        {
          "indexed": false,
          "name": "proof",
          "type": "bytes"
        }
      ],
      "name": "newPriceTicker",
      "type": "event"
    },
    {
      "anonymous": false,
      "inputs": [
        {
          "indexed": true,
          "name": "purchaser",
          "type": "address"
        },
        {
          "indexed": true,
          "name": "beneficiary",
          "type": "address"
        },
        {
          "indexed": false,
          "name": "value",
          "type": "uint256"
        },
        {
          "indexed": false,
          "name": "amount",
          "type": "uint256"
        }
      ],
      "name": "TokenPurchase",
      "type": "event"
    },
    {
      "anonymous": false,
      "inputs": [
        {
          "indexed": true,
          "name": "from",
          "type": "address"
        },
        {
          "indexed": true,
          "name": "_to",
          "type": "address"
        }
      ],
      "name": "OwnershipTransferred",
      "type": "event"
    },
    {
      "constant": false,
      "inputs": [
        {
          "name": "addrs",
          "type": "address[]"
        }
      ],
      "name": "authorizeKyc",
      "outputs": [
        {
          "name": "success",
          "type": "bool"
        }
      ],
      "payable": false,
      "stateMutability": "nonpayable",
      "type": "function"
    },
    {
      "constant": false,
      "inputs": [
        {
          "name": "myid",
          "type": "bytes32"
        },
        {
          "name": "result",
          "type": "string"
        }
      ],
      "name": "__callback",
      "outputs": [],
      "payable": false,
      "stateMutability": "nonpayable",
      "type": "function"
    },
    {
      "constant": false,
      "inputs": [
        {
          "name": "myid",
          "type": "bytes32"
        },
        {
          "name": "result",
          "type": "string"
        },
        {
          "name": "proof",
          "type": "bytes"
        }
      ],
      "name": "__callback",
      "outputs": [],
      "payable": false,
      "stateMutability": "nonpayable",
      "type": "function"
    },
    {
      "constant": false,
      "inputs": [],
      "name": "update",
      "outputs": [],
      "payable": false,
      "stateMutability": "nonpayable",
      "type": "function"
    },
    {
      "constant": false,
      "inputs": [
        {
          "name": "_updateTime",
          "type": "uint256"
        }
      ],
      "name": "updatePeriodically",
      "outputs": [],
      "payable": false,
      "stateMutability": "nonpayable",
      "type": "function"
    },
    {
      "constant": false,
      "inputs": [],
      "name": "pause",
      "outputs": [],
      "payable": false,
      "stateMutability": "nonpayable",
      "type": "function"
    },
    {
      "constant": false,
      "inputs": [],
      "name": "restartSale",
      "outputs": [],
      "payable": false,
      "stateMutability": "nonpayable",
      "type": "function"
    },
    {
      "constant": false,
      "inputs": [],
      "name": "startPrivateSale",
      "outputs": [],
      "payable": false,
      "stateMutability": "nonpayable",
      "type": "function"
    },
    {
      "constant": false,
      "inputs": [],
      "name": "endPrivateSale",
      "outputs": [],
      "payable": false,
      "stateMutability": "nonpayable",
      "type": "function"
    },
    {
      "constant": false,
      "inputs": [],
      "name": "startPublicSaleRoundOne",
      "outputs": [],
      "payable": false,
      "stateMutability": "nonpayable",
      "type": "function"
    },
    {
      "constant": false,
      "inputs": [],
      "name": "endPublicSaleRoundOne",
      "outputs": [],
      "payable": false,
      "stateMutability": "nonpayable",
      "type": "function"
    },
    {
      "constant": false,
      "inputs": [],
      "name": "startPublicSaleRoundTwo",
      "outputs": [],
      "payable": false,
      "stateMutability": "nonpayable",
      "type": "function"
    },
    {
      "constant": false,
      "inputs": [],
      "name": "endPublicSaleRoundTwo",
      "outputs": [],
      "payable": false,
      "stateMutability": "nonpayable",
      "type": "function"
    },
    {
      "constant": false,
      "inputs": [],
      "name": "startPublicSaleRoundThree",
      "outputs": [],
      "payable": false,
      "stateMutability": "nonpayable",
      "type": "function"
    },
    {
      "constant": false,
      "inputs": [],
      "name": "endPublicSaleRoundThree",
      "outputs": [],
      "payable": false,
      "stateMutability": "nonpayable",
      "type": "function"
    },
    {
      "constant": false,
      "inputs": [],
      "name": "startPublicSaleRoundFour",
      "outputs": [],
      "payable": false,
      "stateMutability": "nonpayable",
      "type": "function"
    },
    {
      "constant": false,
      "inputs": [],
      "name": "endPublicSaleRoundFour",
      "outputs": [],
      "payable": false,
      "stateMutability": "nonpayable",
      "type": "function"
    },
    {
      "constant": false,
      "inputs": [],
      "name": "startPublicSaleRoundFive",
      "outputs": [],
      "payable": false,
      "stateMutability": "nonpayable",
      "type": "function"
    },
    {
      "constant": false,
      "inputs": [],
      "name": "endPublicSaleRoundFive",
      "outputs": [],
      "payable": false,
      "stateMutability": "nonpayable",
      "type": "function"
    },
    {
      "constant": true,
      "inputs": [],
      "name": "getStage",
      "outputs": [
        {
          "name": "",
          "type": "string"
        }
      ],
      "payable": false,
      "stateMutability": "view",
      "type": "function"
    },
    {
      "constant": false,
      "inputs": [
        {
          "name": "_beneficiary",
          "type": "address"
        },
        {
          "name": "_usdCents",
          "type": "uint256"
        },
        {
          "name": "privateSaleTokensPerDollar",
          "type": "uint256"
        }
      ],
      "name": "sendPrivateSaleTokens",
      "outputs": [],
      "payable": false,
      "stateMutability": "nonpayable",
      "type": "function"
    },
    {
      "constant": false,
      "inputs": [
        {
          "name": "_ethPriceInCents",
          "type": "uint256"
        }
      ],
      "name": "setEthPriceInCents",
      "outputs": [
        {
          "name": "",
          "type": "bool"
        }
      ],
      "payable": false,
      "stateMutability": "nonpayable",
      "type": "function"
    },
    {
      "constant": false,
      "inputs": [
        {
          "name": "_beneficiary",
          "type": "address"
        }
      ],
      "name": "buyTokens",
      "outputs": [],
      "payable": true,
      "stateMutability": "payable",
      "type": "function"
    },
    {
      "constant": true,
      "inputs": [],
      "name": "discountInCurrentSale",
      "outputs": [
        {
          "name": "",
          "type": "uint256"
        }
      ],
      "payable": false,
      "stateMutability": "view",
      "type": "function"
    },
    {
      "constant": true,
      "inputs": [
        {
          "name": "_usdCents",
          "type": "uint256"
        }
      ],
      "name": "tokenAmount",
      "outputs": [
        {
          "name": "",
          "type": "uint256"
        }
      ],
      "payable": false,
      "stateMutability": "view",
      "type": "function"
    },
    {
      "constant": false,
      "inputs": [],
      "name": "burnTokens",
      "outputs": [],
      "payable": false,
      "stateMutability": "nonpayable",
      "type": "function"
    },
    {
      "constant": false,
      "inputs": [],
      "name": "finalizeSale",
      "outputs": [],
      "payable": false,
      "stateMutability": "nonpayable",
      "type": "function"
    },
    {
      "constant": true,
      "inputs": [],
      "name": "isSoftCapReached",
      "outputs": [
        {
          "name": "",
          "type": "bool"
        }
      ],
      "payable": false,
      "stateMutability": "view",
      "type": "function"
    },
    {
      "constant": true,
      "inputs": [],
      "name": "tokenPriceInCurrentSale",
      "outputs": [
        {
          "name": "",
          "type": "uint256"
        }
      ],
      "payable": false,
      "stateMutability": "view",
      "type": "function"
    },
    {
      "constant": true,
      "inputs": [],
      "name": "minimumInvestmentInCurrentSale",
      "outputs": [
        {
          "name": "",
          "type": "uint256"
        }
      ],
      "payable": false,
      "stateMutability": "view",
      "type": "function"
    }
  ],
  "bytecode": "0x608060405260006008556401a7316700600a556329b92700600b556a94e47b8d68171534000000600c556a422ca8b0a00a4250000000600d556a52b7d2dcc80cd2e4000000600e556000600f5560006010556000601155600060125560006013556000601455604b60165560286017556014601855600a6019556000601a556000601b60006101000a81548160ff021916908315150217905550348015620000a657600080fd5b5060405160808062005f178339810180604052810190808051906020019092919080519060200190929190805190602001909291908051906020019092919050505083806000806101000a81548173ffffffffffffffffffffffffffffffffffffffff021916908373ffffffffffffffffffffffffffffffffffffffff16021790555050600073ffffffffffffffffffffffffffffffffffffffff168373ffffffffffffffffffffffffffffffffffffffff16141515156200016757600080fd5b600073ffffffffffffffffffffffffffffffffffffffff168273ffffffffffffffffffffffffffffffffffffffff1614151515620001a457600080fd5b600081111515620001b457600080fd5b82601560006101000a81548173ffffffffffffffffffffffffffffffffffffffff021916908373ffffffffffffffffffffffffffffffffffffffff160217905550836000806101000a81548173ffffffffffffffffffffffffffffffffffffffff021916908373ffffffffffffffffffffffffffffffffffffffff16021790555081600960006101000a81548173ffffffffffffffffffffffffffffffffffffffff021916908373ffffffffffffffffffffffffffffffffffffffff160217905550806007819055506000601d60006101000a81548160ff0219169083600d8111156200029d57fe5b021790555050505050615c6180620002b66000396000f3006080604052600436106102bf576000357c0100000000000000000000000000000000000000000000000000000000900463ffffffff1680630221f7b71461032a578063044f9afe1461035557806307008e6e1461039a57806308003f78146103b157806308cdc938146103c857806312aef8c3146103f35780631fe007851461041e57806320c326dd1461043557806327dc297e146104605780632bf951cf146104d7578063338dbf59146104ee57806338bbfa50146105055780633b17cce9146105c25780633c86eac3146105d957806345ab331e14610604578063503536d914610645578063520c2cde14610670578063521eb2731461069b578063585dbe48146106f257806358a687ec14610709578063618560be146107205780636cea50a11461073757806370d7a0e71461076657806374711285146107e45780637507fd99146107fb578063751cefbb1461082657806379ba5097146108515780637cb156bd1461086857806380d32f851461087f57806382428323146108ae5780638456cb59146108db57806385daf8ea146108f25780638da5cb5b1461091d578063906a26e0146109745780639450ecd01461099f5780639d66ab4c146109ca5780639e87fac8146109e1578063a19e954d14610a10578063a2e6204514610a27578063aca2baef14610a3e578063ae002b3614610a69578063bc95070814610a94578063c7b850dd14610abf578063d4ee1d9014610b1a578063d80f6d3d14610b71578063dc55509014610b9c578063e6a23c3d14610bc7578063ec8ac4d814610bde578063ec8d569a14610c14578063ec9f92a514610c3f578063f29f551014610c96578063f2fde38b14610cf1578063f36eca0d14610d34578063fb86a40414610d5f578063fc0c546a14610d8a578063fcaa766414610de1578063fd175d2e14610e71578063ff186b2e14610e88578063ffee219214610eb3575b6000809054906101000a900473ffffffffffffffffffffffffffffffffffffffff1673ffffffffffffffffffffffffffffffffffffffff163373ffffffffffffffffffffffffffffffffffffffff161415156103235761031e33610ede565b610328565b600080fd5b005b34801561033657600080fd5b5061033f6110c6565b6040518082815260200191505060405180910390f35b34801561036157600080fd5b50610380600480360381019080803590602001909291905050506110cc565b604051808215151515815260200191505060405180910390f35b3480156103a657600080fd5b506103af611139565b005b3480156103bd57600080fd5b506103c66111ee565b005b3480156103d457600080fd5b506103dd61134a565b6040518082815260200191505060405180910390f35b3480156103ff57600080fd5b50610408611350565b6040518082815260200191505060405180910390f35b34801561042a57600080fd5b50610433611356565b005b34801561044157600080fd5b5061044a61140b565b6040518082815260200191505060405180910390f35b34801561046c57600080fd5b506104d56004803603810190808035600019169060200190929190803590602001908201803590602001908080601f0160208091040260200160405190810160405280939291908181526020018383808284378201915050505050509192919290505050611411565b005b3480156104e357600080fd5b506104ec611454565b005b3480156104fa57600080fd5b50610503611509565b005b34801561051157600080fd5b506105c06004803603810190808035600019169060200190929190803590602001908201803590602001908080601f0160208091040260200160405190810160405280939291908181526020018383808284378201915050505050509192919290803590602001908201803590602001908080601f01602080910402602001604051908101604052809392919081815260200183838082843782019150505050505091929192905050506115c1565b005b3480156105ce57600080fd5b506105d7611748565b005b3480156105e557600080fd5b506105ee6117fd565b6040518082815260200191505060405180910390f35b34801561061057600080fd5b5061062f6004803603810190808035906020019092919050505061191b565b6040518082815260200191505060405180910390f35b34801561065157600080fd5b5061065a611b43565b6040518082815260200191505060405180910390f35b34801561067c57600080fd5b50610685611b49565b6040518082815260200191505060405180910390f35b3480156106a757600080fd5b506106b0611b4f565b604051808273ffffffffffffffffffffffffffffffffffffffff1673ffffffffffffffffffffffffffffffffffffffff16815260200191505060405180910390f35b3480156106fe57600080fd5b50610707611b75565b005b34801561071557600080fd5b5061071e611c2a565b005b34801561072c57600080fd5b50610735611d86565b005b34801561074357600080fd5b5061074c611e3b565b604051808215151515815260200191505060405180910390f35b34801561077257600080fd5b506107ca60048036038101908080359060200190820180359060200190808060200260200160405190810160405280939291908181526020018383602002808284378201915050505050509192919290505050611e4e565b604051808215151515815260200191505060405180910390f35b3480156107f057600080fd5b506107f9611f46565b005b34801561080757600080fd5b50610810612024565b6040518082815260200191505060405180910390f35b34801561083257600080fd5b5061083b61202a565b6040518082815260200191505060405180910390f35b34801561085d57600080fd5b50610866612030565b005b34801561087457600080fd5b5061087d6121cf565b005b34801561088b57600080fd5b50610894612284565b604051808215151515815260200191505060405180910390f35b3480156108ba57600080fd5b506108d9600480360381019080803590602001909291905050506122a4565b005b3480156108e757600080fd5b506108f0612577565b005b3480156108fe57600080fd5b50610907612689565b6040518082815260200191505060405180910390f35b34801561092957600080fd5b5061093261268f565b604051808273ffffffffffffffffffffffffffffffffffffffff1673ffffffffffffffffffffffffffffffffffffffff16815260200191505060405180910390f35b34801561098057600080fd5b506109896126b4565b6040518082815260200191505060405180910390f35b3480156109ab57600080fd5b506109b46126ba565b6040518082815260200191505060405180910390f35b3480156109d657600080fd5b506109df6127d8565b005b3480156109ed57600080fd5b506109f661288d565b604051808215151515815260200191505060405180910390f35b348015610a1c57600080fd5b50610a256128a0565b005b348015610a3357600080fd5b50610a3c612955565b005b348015610a4a57600080fd5b50610a53612c34565b6040518082815260200191505060405180910390f35b348015610a7557600080fd5b50610a7e612c3a565b6040518082815260200191505060405180910390f35b348015610aa057600080fd5b50610aa9612c40565b6040518082815260200191505060405180910390f35b348015610acb57600080fd5b50610b00600480360381019080803573ffffffffffffffffffffffffffffffffffffffff169060200190929190505050612c46565b604051808215151515815260200191505060405180910390f35b348015610b2657600080fd5b50610b2f612c66565b604051808273ffffffffffffffffffffffffffffffffffffffff1673ffffffffffffffffffffffffffffffffffffffff16815260200191505060405180910390f35b348015610b7d57600080fd5b50610b86612c8c565b6040518082815260200191505060405180910390f35b348015610ba857600080fd5b50610bb1612c92565b6040518082815260200191505060405180910390f35b348015610bd357600080fd5b50610bdc612c98565b005b610c12600480360381019080803573ffffffffffffffffffffffffffffffffffffffff169060200190929190505050610ede565b005b348015610c2057600080fd5b50610c29612d4d565b6040518082815260200191505060405180910390f35b348015610c4b57600080fd5b50610c94600480360381019080803573ffffffffffffffffffffffffffffffffffffffff1690602001909291908035906020019092919080359060200190929190505050612e66565b005b348015610ca257600080fd5b50610cd7600480360381019080803573ffffffffffffffffffffffffffffffffffffffff169060200190929190505050613181565b604051808215151515815260200191505060405180910390f35b348015610cfd57600080fd5b50610d32600480360381019080803573ffffffffffffffffffffffffffffffffffffffff1690602001909291905050506131a1565b005b348015610d4057600080fd5b50610d49613240565b6040518082815260200191505060405180910390f35b348015610d6b57600080fd5b50610d74613246565b6040518082815260200191505060405180910390f35b348015610d9657600080fd5b50610d9f61324c565b604051808273ffffffffffffffffffffffffffffffffffffffff1673ffffffffffffffffffffffffffffffffffffffff16815260200191505060405180910390f35b348015610ded57600080fd5b50610df6613272565b6040518080602001828103825283818151815260200191508051906020019080838360005b83811015610e36578082015181840152602081019050610e1b565b50505050905090810190601f168015610e635780820380516001836020036101000a031916815260200191505b509250505060405180910390f35b348015610e7d57600080fd5b50610e86613851565b005b348015610e9457600080fd5b50610e9d613906565b6040518082815260200191505060405180910390f35b348015610ebf57600080fd5b50610ec861390c565b6040518082815260200191505060405180910390f35b6000806000601b60009054906101000a900460ff161515610efe57600080fd5b60011515601e60008673ffffffffffffffffffffffffffffffffffffffff1673ffffffffffffffffffffffffffffffffffffffff16815260200190815260200160002060009054906101000a900460ff161515141515610f5d57600080fd5b60011515601d60029054906101000a900460ff16151514151515610f8057600080fd5b349250600083111515610f9257600080fd5b610fc1670de0b6b3a7640000610fb36007548661391290919063ffffffff16565b61394390919063ffffffff16565b9150610fcc82613967565b610fd58261397b565b9050610fe082613ce8565b610fea8482613d19565b601560009054906101000a900473ffffffffffffffffffffffffffffffffffffffff1673ffffffffffffffffffffffffffffffffffffffff166108fc349081150290604051600060405180830381858888f19350505050158015611052573d6000803e3d6000fd5b508373ffffffffffffffffffffffffffffffffffffffff163373ffffffffffffffffffffffffffffffffffffffff167f623b3804fa71d67900d064613da8f94b9617215ee90799290593e1745087ad188584604051808381526020018281526020019250505060405180910390a350505050565b60185481565b60008060009054906101000a900473ffffffffffffffffffffffffffffffffffffffff1673ffffffffffffffffffffffffffffffffffffffff163373ffffffffffffffffffffffffffffffffffffffff1614151561112957600080fd5b8160078190555060019050919050565b6000809054906101000a900473ffffffffffffffffffffffffffffffffffffffff1673ffffffffffffffffffffffffffffffffffffffff163373ffffffffffffffffffffffffffffffffffffffff1614151561119457600080fd5b600b600d8111156111a157fe5b601d60009054906101000a900460ff16600d8111156111bc57fe5b1415156111c857600080fd5b600c601d60006101000a81548160ff0219169083600d8111156111e757fe5b0217905550565b6000809054906101000a900473ffffffffffffffffffffffffffffffffffffffff1673ffffffffffffffffffffffffffffffffffffffff163373ffffffffffffffffffffffffffffffffffffffff1614151561124957600080fd5b600d8081111561125557fe5b601d60009054906101000a900460ff16600d81111561127057fe5b14151561127c57600080fd5b600960009054906101000a900473ffffffffffffffffffffffffffffffffffffffff1673ffffffffffffffffffffffffffffffffffffffff16631b65144d6040518163ffffffff167c0100000000000000000000000000000000000000000000000000000000028152600401602060405180830381600087803b15801561130257600080fd5b505af1158015611316573d6000803e3d6000fd5b505050506040513d602081101561132c57600080fd5b8101908080519060200190929190505050151561134857600080fd5b565b60125481565b600c5481565b6000809054906101000a900473ffffffffffffffffffffffffffffffffffffffff1673ffffffffffffffffffffffffffffffffffffffff163373ffffffffffffffffffffffffffffffffffffffff161415156113b157600080fd5b6003600d8111156113be57fe5b601d60009054906101000a900460ff16600d8111156113d957fe5b1415156113e557600080fd5b6004601d60006101000a81548160ff0219169083600d81111561140457fe5b0217905550565b600e5481565b611450828260006040519080825280601f01601f19166020018201604052801561144a5781602001602082028038833980820191505090505b506115c1565b5050565b6000809054906101000a900473ffffffffffffffffffffffffffffffffffffffff1673ffffffffffffffffffffffffffffffffffffffff163373ffffffffffffffffffffffffffffffffffffffff161415156114af57600080fd5b6009600d8111156114bc57fe5b601d60009054906101000a900460ff16600d8111156114d757fe5b1415156114e357600080fd5b600a601d60006101000a81548160ff0219169083600d81111561150257fe5b0217905550565b6000809054906101000a900473ffffffffffffffffffffffffffffffffffffffff1673ffffffffffffffffffffffffffffffffffffffff163373ffffffffffffffffffffffffffffffffffffffff1614151561156457600080fd5b601b60009054906101000a900460ff1615151561158057600080fd5b6001601b60006101000a81548160ff0219169083151502179055506002601d60006101000a81548160ff0219169083600d8111156115ba57fe5b0217905550565b6115c9613d27565b73ffffffffffffffffffffffffffffffffffffffff163373ffffffffffffffffffffffffffffffffffffffff1614151561160257600080fd5b61160d826002614089565b6007819055507fbbb1d35a5e7de79377b7af9c783b4a997ea7f2f218f68ff8d6ad60880279a7c48383836040518084600019166000191681526020018060200180602001838103835285818151815260200191508051906020019080838360005b8381101561168957808201518184015260208101905061166e565b50505050905090810190601f1680156116b65780820380516001836020036101000a031916815260200191505b50838103825284818151815260200191508051906020019080838360005b838110156116ef5780820151818401526020810190506116d4565b50505050905090810190601f16801561171c5780820380516001836020036101000a031916815260200191505b509550505050505060405180910390a1600060085411156117435761174260085461437d565b5b505050565b6000809054906101000a900473ffffffffffffffffffffffffffffffffffffffff1673ffffffffffffffffffffffffffffffffffffffff163373ffffffffffffffffffffffffffffffffffffffff161415156117a357600080fd5b6008600d8111156117b057fe5b601d60009054906101000a900460ff16600d8111156117cb57fe5b1415156117d757600080fd5b6009601d60006101000a81548160ff0219169083600d8111156117f657fe5b0217905550565b60006004600d81111561180c57fe5b601d60009054906101000a900460ff16600d81111561182757fe5b1415611837576127109050611918565b6006600d81111561184457fe5b601d60009054906101000a900460ff16600d81111561185f57fe5b141561186f576127109050611918565b6008600d81111561187c57fe5b601d60009054906101000a900460ff16600d81111561189757fe5b14156118a7576127109050611918565b600a600d8111156118b457fe5b601d60009054906101000a900460ff16600d8111156118cf57fe5b14156118df576127109050611918565b600c600d8111156118ec57fe5b601d60009054906101000a900460ff16600d81111561190757fe5b1415611917576127109050611918565b5b90565b6000806000601b60009054906101000a900460ff16151561193b57600080fd5b6004600d81111561194857fe5b601d60009054906101000a900460ff16600d81111561196357fe5b14156119a157611997670de0b6b3a764000061198960198761394390919063ffffffff16565b61391290919063ffffffff16565b9050809150611b39565b6006600d8111156119ae57fe5b601d60009054906101000a900460ff16600d8111156119c957fe5b1415611a07576119fd670de0b6b3a76400006119ef603c8761394390919063ffffffff16565b61391290919063ffffffff16565b9050809150611b38565b6008600d811115611a1457fe5b601d60009054906101000a900460ff16600d811115611a2f57fe5b1415611a6d57611a63670de0b6b3a7640000611a5560508761394390919063ffffffff16565b61391290919063ffffffff16565b9050809150611b37565b600a600d811115611a7a57fe5b601d60009054906101000a900460ff16600d811115611a9557fe5b1415611ad357611ac9670de0b6b3a7640000611abb605a8761394390919063ffffffff16565b61391290919063ffffffff16565b9050809150611b36565b600c600d811115611ae057fe5b601d60009054906101000a900460ff16600d811115611afb57fe5b1415611b3557611b2f670de0b6b3a7640000611b2160648761394390919063ffffffff16565b61391290919063ffffffff16565b90508091505b5b5b5b5b8192505050919050565b60145481565b60165481565b601560009054906101000a900473ffffffffffffffffffffffffffffffffffffffff1681565b6000809054906101000a900473ffffffffffffffffffffffffffffffffffffffff1673ffffffffffffffffffffffffffffffffffffffff163373ffffffffffffffffffffffffffffffffffffffff16141515611bd057600080fd5b6006600d811115611bdd57fe5b601d60009054906101000a900460ff16600d811115611bf857fe5b141515611c0457600080fd5b6007601d60006101000a81548160ff0219169083600d811115611c2357fe5b0217905550565b6000809054906101000a900473ffffffffffffffffffffffffffffffffffffffff1673ffffffffffffffffffffffffffffffffffffffff163373ffffffffffffffffffffffffffffffffffffffff16141515611c8557600080fd5b600d80811115611c9157fe5b601d60009054906101000a900460ff16600d811115611cac57fe5b141515611cb857600080fd5b600960009054906101000a900473ffffffffffffffffffffffffffffffffffffffff1673ffffffffffffffffffffffffffffffffffffffff16634bb278f36040518163ffffffff167c0100000000000000000000000000000000000000000000000000000000028152600401602060405180830381600087803b158015611d3e57600080fd5b505af1158015611d52573d6000803e3d6000fd5b505050506040513d6020811015611d6857600080fd5b81019080805190602001909291905050501515611d8457600080fd5b565b6000809054906101000a900473ffffffffffffffffffffffffffffffffffffffff1673ffffffffffffffffffffffffffffffffffffffff163373ffffffffffffffffffffffffffffffffffffffff16141515611de157600080fd5b6007600d811115611dee57fe5b601d60009054906101000a900460ff16600d811115611e0957fe5b141515611e1557600080fd5b6008601d60006101000a81548160ff0219169083600d811115611e3457fe5b0217905550565b601b60009054906101000a900460ff1681565b60008060008060009054906101000a900473ffffffffffffffffffffffffffffffffffffffff1673ffffffffffffffffffffffffffffffffffffffff163373ffffffffffffffffffffffffffffffffffffffff16141515611eae57600080fd5b83519150600090505b81811015611f3b576001601e60008684815181101515611ed357fe5b9060200190602002015173ffffffffffffffffffffffffffffffffffffffff1673ffffffffffffffffffffffffffffffffffffffff16815260200190815260200160002060006101000a81548160ff0219169083151502179055508080600101915050611eb7565b600192505050919050565b6000809054906101000a900473ffffffffffffffffffffffffffffffffffffffff1673ffffffffffffffffffffffffffffffffffffffff163373ffffffffffffffffffffffffffffffffffffffff16141515611fa157600080fd5b6001600d811115611fae57fe5b601d60009054906101000a900460ff16600d811115611fc957fe5b141515611fd557600080fd5b601d60019054906101000a900460ff16601d60006101000a81548160ff0219169083600d81111561200257fe5b02179055506000601d60026101000a81548160ff021916908315150217905550565b60195481565b601a5481565b600160009054906101000a900473ffffffffffffffffffffffffffffffffffffffff1673ffffffffffffffffffffffffffffffffffffffff163373ffffffffffffffffffffffffffffffffffffffff1614151561208c57600080fd5b600160009054906101000a900473ffffffffffffffffffffffffffffffffffffffff1673ffffffffffffffffffffffffffffffffffffffff166000809054906101000a900473ffffffffffffffffffffffffffffffffffffffff1673ffffffffffffffffffffffffffffffffffffffff167f8be0079c531659141344cd1fd0a4f28419497f9722a3daafe3b4186f6b6457e060405160405180910390a3600160009054906101000a900473ffffffffffffffffffffffffffffffffffffffff166000806101000a81548173ffffffffffffffffffffffffffffffffffffffff021916908373ffffffffffffffffffffffffffffffffffffffff1602179055506000600160006101000a81548173ffffffffffffffffffffffffffffffffffffffff021916908373ffffffffffffffffffffffffffffffffffffffff160217905550565b6000809054906101000a900473ffffffffffffffffffffffffffffffffffffffff1673ffffffffffffffffffffffffffffffffffffffff163373ffffffffffffffffffffffffffffffffffffffff1614151561222a57600080fd5b6004600d81111561223757fe5b601d60009054906101000a900460ff16600d81111561225257fe5b14151561225e57600080fd5b6005601d60006101000a81548160ff0219169083600d81111561227d57fe5b0217905550565b6000600b54601c5410151561229c57600190506122a1565b600090505b90565b6000809054906101000a900473ffffffffffffffffffffffffffffffffffffffff1673ffffffffffffffffffffffffffffffffffffffff163373ffffffffffffffffffffffffffffffffffffffff161415156122ff57600080fd5b806008819055503073ffffffffffffffffffffffffffffffffffffffff16316123606040805190810160405280600381526020017f55524c0000000000000000000000000000000000000000000000000000000000815250620249f06145ef565b111561241f577f46cb989ef9cef13e930e3b7f286225a086e716a90d63e0b7da85d310a9db0c9a60405180806020018281038252604b8152602001807f4f7261636c697a6520717565727920776173204e4f542073656e742c20706c6581526020017f6173652061646420736f6d652045544820746f20636f76657220666f7220746881526020017f652071756572792066656500000000000000000000000000000000000000000081525060600191505060405180910390a1612574565b7f46cb989ef9cef13e930e3b7f286225a086e716a90d63e0b7da85d310a9db0c9a6040518080602001828103825260358152602001807f4f7261636c697a65207175657279207761732073656e742c207374616e64696e81526020017f6720627920666f722074686520616e737765722e2e000000000000000000000081525060400191505060405180910390a16125726040805190810160405280600381526020017f55524c0000000000000000000000000000000000000000000000000000000000815250608060405190810160405280604c81526020017f6a736f6e2868747470733a2f2f6170692e6b72616b656e2e636f6d2f302f707581526020017f626c69632f5469636b65723f706169723d455448555344292e726573756c742e81526020017f584554485a5553442e632e300000000000000000000000000000000000000000815250620249f06149cc565b505b50565b6000809054906101000a900473ffffffffffffffffffffffffffffffffffffffff1673ffffffffffffffffffffffffffffffffffffffff163373ffffffffffffffffffffffffffffffffffffffff161415156125d257600080fd5b60001515601d60029054906101000a900460ff1615151415156125f457600080fd5b60011515601b60009054906101000a900460ff16151514151561261657600080fd5b601d60009054906101000a900460ff16601d60016101000a81548160ff0219169083600d81111561264357fe5b02179055506001601d60006101000a81548160ff0219169083600d81111561266757fe5b02179055506001601d60026101000a81548160ff021916908315150217905550565b600d5481565b6000809054906101000a900473ffffffffffffffffffffffffffffffffffffffff1681565b600b5481565b60006004600d8111156126c957fe5b601d60009054906101000a900460ff16600d8111156126e457fe5b14156126f45760165490506127d5565b6006600d81111561270157fe5b601d60009054906101000a900460ff16600d81111561271c57fe5b141561272c5760175490506127d5565b6008600d81111561273957fe5b601d60009054906101000a900460ff16600d81111561275457fe5b14156127645760185490506127d5565b600a600d81111561277157fe5b601d60009054906101000a900460ff16600d81111561278c57fe5b141561279c5760195490506127d5565b600c600d8111156127a957fe5b601d60009054906101000a900460ff16600d8111156127c457fe5b14156127d457601a5490506127d5565b5b90565b6000809054906101000a900473ffffffffffffffffffffffffffffffffffffffff1673ffffffffffffffffffffffffffffffffffffffff163373ffffffffffffffffffffffffffffffffffffffff1614151561283357600080fd5b600a600d81111561284057fe5b601d60009054906101000a900460ff16600d81111561285b57fe5b14151561286757600080fd5b600b601d60006101000a81548160ff0219169083600d81111561288657fe5b0217905550565b601d60029054906101000a900460ff1681565b6000809054906101000a900473ffffffffffffffffffffffffffffffffffffffff1673ffffffffffffffffffffffffffffffffffffffff163373ffffffffffffffffffffffffffffffffffffffff161415156128fb57600080fd5b600c600d81111561290857fe5b601d60009054906101000a900460ff16600d81111561292357fe5b14151561292f57600080fd5b600d601d60006101000a81548160ff0219169083600d81111561294e57fe5b0217905550565b6000809054906101000a900473ffffffffffffffffffffffffffffffffffffffff1673ffffffffffffffffffffffffffffffffffffffff163373ffffffffffffffffffffffffffffffffffffffff161415156129b057600080fd5b600060085411156129c45760006008819055505b3073ffffffffffffffffffffffffffffffffffffffff1631612a1e6040805190810160405280600381526020017f55524c0000000000000000000000000000000000000000000000000000000000815250620249f06145ef565b1115612add577f46cb989ef9cef13e930e3b7f286225a086e716a90d63e0b7da85d310a9db0c9a60405180806020018281038252604b8152602001807f4f7261636c697a6520717565727920776173204e4f542073656e742c20706c6581526020017f6173652061646420736f6d652045544820746f20636f76657220666f7220746881526020017f652071756572792066656500000000000000000000000000000000000000000081525060600191505060405180910390a1612c32565b7f46cb989ef9cef13e930e3b7f286225a086e716a90d63e0b7da85d310a9db0c9a6040518080602001828103825260358152602001807f4f7261636c697a65207175657279207761732073656e742c207374616e64696e81526020017f6720627920666f722074686520616e737765722e2e000000000000000000000081525060400191505060405180910390a1612c306040805190810160405280600381526020017f55524c0000000000000000000000000000000000000000000000000000000000815250608060405190810160405280604c81526020017f6a736f6e2868747470733a2f2f6170692e6b72616b656e2e636f6d2f302f707581526020017f626c69632f5469636b65723f706169723d455448555344292e726573756c742e81526020017f584554485a5553442e632e300000000000000000000000000000000000000000815250620249f06149cc565b505b565b60115481565b60175481565b601c5481565b601e6020528060005260406000206000915054906101000a900460ff1681565b600160009054906101000a900473ffffffffffffffffffffffffffffffffffffffff1681565b600f5481565b60085481565b6000809054906101000a900473ffffffffffffffffffffffffffffffffffffffff1673ffffffffffffffffffffffffffffffffffffffff163373ffffffffffffffffffffffffffffffffffffffff16141515612cf357600080fd5b6002600d811115612d0057fe5b601d60009054906101000a900460ff16600d811115612d1b57fe5b141515612d2757600080fd5b6003601d60006101000a81548160ff0219169083600d811115612d4657fe5b0217905550565b60006004600d811115612d5c57fe5b601d60009054906101000a900460ff16600d811115612d7757fe5b1415612d865760199050612e63565b6006600d811115612d9357fe5b601d60009054906101000a900460ff16600d811115612dae57fe5b1415612dbd57603c9050612e63565b6008600d811115612dca57fe5b601d60009054906101000a900460ff16600d811115612de557fe5b1415612df45760509050612e63565b600a600d811115612e0157fe5b601d60009054906101000a900460ff16600d811115612e1c57fe5b1415612e2b57605a9050612e63565b600c600d811115612e3857fe5b601d60009054906101000a900460ff16600d811115612e5357fe5b1415612e625760649050612e63565b5b90565b6000601b60009054906101000a900460ff161515612e8357600080fd5b6000809054906101000a900473ffffffffffffffffffffffffffffffffffffffff1673ffffffffffffffffffffffffffffffffffffffff163373ffffffffffffffffffffffffffffffffffffffff16141515612ede57600080fd5b600073ffffffffffffffffffffffffffffffffffffffff168473ffffffffffffffffffffffffffffffffffffffff1614158015612f1b5750600082115b1515612f2657600080fd5b60011515601d60029054906101000a900460ff16151514151515612f4957600080fd5b6002600d811115612f5657fe5b601d60009054906101000a900460ff16600d811115612f7157fe5b141515612f7d57600080fd5b612f9283601c54614f8090919063ffffffff16565b601c81905550600a54601c5411151515612fab57600080fd5b612fdb670de0b6b3a76400008302612fcd60648661394390919063ffffffff16565b61391290919063ffffffff16565b9050612ff281600f54614f8090919063ffffffff16565b600f81905550600d54600f541115151561300b57600080fd5b6001601f60008673ffffffffffffffffffffffffffffffffffffffff1673ffffffffffffffffffffffffffffffffffffffff16815260200190815260200160002060006101000a81548160ff021916908315150217905550600960009054906101000a900473ffffffffffffffffffffffffffffffffffffffff1673ffffffffffffffffffffffffffffffffffffffff1663836cb5b1858360016040518463ffffffff167c0100000000000000000000000000000000000000000000000000000000028152600401808473ffffffffffffffffffffffffffffffffffffffff1673ffffffffffffffffffffffffffffffffffffffff168152602001838152602001821515151581526020019350505050602060405180830381600087803b15801561313557600080fd5b505af1158015613149573d6000803e3d6000fd5b505050506040513d602081101561315f57600080fd5b8101908080519060200190929190505050151561317b57600080fd5b50505050565b601f6020528060005260406000206000915054906101000a900460ff1681565b6000809054906101000a900473ffffffffffffffffffffffffffffffffffffffff1673ffffffffffffffffffffffffffffffffffffffff163373ffffffffffffffffffffffffffffffffffffffff161415156131fc57600080fd5b80600160006101000a81548173ffffffffffffffffffffffffffffffffffffffff021916908373ffffffffffffffffffffffffffffffffffffffff16021790555050565b60135481565b600a5481565b600960009054906101000a900473ffffffffffffffffffffffffffffffffffffffff1681565b60606002600d81111561328157fe5b601d60009054906101000a900460ff16600d81111561329c57fe5b14156132df576040805190810160405280601281526020017f507269766174652053616c652053746172740000000000000000000000000000815250905061384e565b6003600d8111156132ec57fe5b601d60009054906101000a900460ff16600d81111561330757fe5b141561334a576040805190810160405280601081526020017f507269766174652053616c6520456e6400000000000000000000000000000000815250905061384e565b6004600d81111561335757fe5b601d60009054906101000a900460ff16600d81111561337257fe5b14156133b5576040805190810160405280601b81526020017f5075626c69632053616c6520526f756e64204f6e652053746172740000000000815250905061384e565b6005600d8111156133c257fe5b601d60009054906101000a900460ff16600d8111156133dd57fe5b1415613420576040805190810160405280601981526020017f5075626c69632053616c6520526f756e64204f6e6520456e6400000000000000815250905061384e565b6006600d81111561342d57fe5b601d60009054906101000a900460ff16600d81111561344857fe5b141561348b576040805190810160405280601b81526020017f5075626c69632053616c6520526f756e642054776f2053746172740000000000815250905061384e565b6007600d81111561349857fe5b601d60009054906101000a900460ff16600d8111156134b357fe5b14156134f6576040805190810160405280601981526020017f5075626c69632053616c6520526f756e642054776f20456e6400000000000000815250905061384e565b6008600d81111561350357fe5b601d60009054906101000a900460ff16600d81111561351e57fe5b1415613561576040805190810160405280601d81526020017f5075626c69632053616c6520526f756e64205468726565205374617274000000815250905061384e565b6009600d81111561356e57fe5b601d60009054906101000a900460ff16600d81111561358957fe5b14156135cc576040805190810160405280601b81526020017f5075626c69632053616c6520526f756e6420546872656520456e640000000000815250905061384e565b600a600d8111156135d957fe5b601d60009054906101000a900460ff16600d8111156135f457fe5b1415613637576040805190810160405280601c81526020017f5075626c69632053616c6520526f756e6420466f757220537461727400000000815250905061384e565b600b600d81111561364457fe5b601d60009054906101000a900460ff16600d81111561365f57fe5b14156136a2576040805190810160405280601a81526020017f5075626c69632053616c6520526f756e6420466f757220456e64000000000000815250905061384e565b600c600d8111156136af57fe5b601d60009054906101000a900460ff16600d8111156136ca57fe5b141561370d576040805190810160405280601c81526020017f5075626c69632053616c6520526f756e64204669766520537461727400000000815250905061384e565b600d8081111561371957fe5b601d60009054906101000a900460ff16600d81111561373457fe5b1415613777576040805190810160405280601a81526020017f5075626c69632053616c6520526f756e64204669766520456e64000000000000815250905061384e565b6001600d81111561378457fe5b601d60009054906101000a900460ff16600d81111561379f57fe5b14156137e2576040805190810160405280600681526020017f7061757365640000000000000000000000000000000000000000000000000000815250905061384e565b6000600d8111156137ef57fe5b601d60009054906101000a900460ff16600d81111561380a57fe5b141561384d576040805190810160405280601581526020017f43726f776453616c65204e6f7420537461727465640000000000000000000000815250905061384e565b5b90565b6000809054906101000a900473ffffffffffffffffffffffffffffffffffffffff1673ffffffffffffffffffffffffffffffffffffffff163373ffffffffffffffffffffffffffffffffffffffff161415156138ac57600080fd5b6005600d8111156138b957fe5b601d60009054906101000a900460ff16600d8111156138d457fe5b1415156138e057600080fd5b6006601d60006101000a81548160ff0219169083600d8111156138ff57fe5b0217905550565b60075481565b60105481565b600081830290506000831480613932575081838281151561392f57fe5b04145b151561393d57600080fd5b92915050565b6000808211151561395357600080fd5b818381151561395e57fe5b04905092915050565b612710811015151561397857600080fd5b50565b6000806000601b60009054906101000a900460ff16151561399b57600080fd5b6004600d8111156139a857fe5b601d60009054906101000a900460ff16600d8111156139c357fe5b1415613a42576139f7670de0b6b3a76400006139e960198761394390919063ffffffff16565b61391290919063ffffffff16565b9050809150613a1182601054614f8090919063ffffffff16565b601081905550613a2d6005600e5461394390919063ffffffff16565b60105411151515613a3d57600080fd5b613cde565b6006600d811115613a4f57fe5b601d60009054906101000a900460ff16600d811115613a6a57fe5b1415613ae957613a9e670de0b6b3a7640000613a90603c8761394390919063ffffffff16565b61391290919063ffffffff16565b9050809150613ab882601154614f8090919063ffffffff16565b601181905550613ad46005600e5461394390919063ffffffff16565b60115411151515613ae457600080fd5b613cdd565b6008600d811115613af657fe5b601d60009054906101000a900460ff16600d811115613b1157fe5b1415613b9057613b45670de0b6b3a7640000613b3760508761394390919063ffffffff16565b61391290919063ffffffff16565b9050809150613b5f82601254614f8090919063ffffffff16565b601281905550613b7b6005600e5461394390919063ffffffff16565b60125411151515613b8b57600080fd5b613cdc565b600a600d811115613b9d57fe5b601d60009054906101000a900460ff16600d811115613bb857fe5b1415613c3757613bec670de0b6b3a7640000613bde605a8761394390919063ffffffff16565b61391290919063ffffffff16565b9050809150613c0682601354614f8090919063ffffffff16565b601381905550613c226005600e5461394390919063ffffffff16565b60135411151515613c3257600080fd5b613cdb565b600c600d811115613c4457fe5b601d60009054906101000a900460ff16600d811115613c5f57fe5b1415613cda57613c93670de0b6b3a7640000613c8560648761394390919063ffffffff16565b61391290919063ffffffff16565b9050809150613cad82601454614f8090919063ffffffff16565b601481905550613cc96005600e5461394390919063ffffffff16565b60145411151515613cd957600080fd5b5b5b5b5b5b8192505050919050565b613cfd81601c54614f8090919063ffffffff16565b601c81905550600a54601c5411151515613d1657600080fd5b50565b613d238282614f9c565b5050565b600080600260009054906101000a900473ffffffffffffffffffffffffffffffffffffffff1673ffffffffffffffffffffffffffffffffffffffff161480613d9957506000613d97600260009054906101000a900473ffffffffffffffffffffffffffffffffffffffff16615110565b145b15613daa57613da8600061511b565b505b600260009054906101000a900473ffffffffffffffffffffffffffffffffffffffff1673ffffffffffffffffffffffffffffffffffffffff166338cc48316040518163ffffffff167c0100000000000000000000000000000000000000000000000000000000028152600401602060405180830381600087803b158015613e3057600080fd5b505af1158015613e44573d6000803e3d6000fd5b505050506040513d6020811015613e5a57600080fd5b810190808051906020019092919050505073ffffffffffffffffffffffffffffffffffffffff16600360009054906101000a900473ffffffffffffffffffffffffffffffffffffffff1673ffffffffffffffffffffffffffffffffffffffff16141515613fc357600260009054906101000a900473ffffffffffffffffffffffffffffffffffffffff1673ffffffffffffffffffffffffffffffffffffffff166338cc48316040518163ffffffff167c0100000000000000000000000000000000000000000000000000000000028152600401602060405180830381600087803b158015613f4757600080fd5b505af1158015613f5b573d6000803e3d6000fd5b505050506040513d6020811015613f7157600080fd5b8101908080519060200190929190505050600360006101000a81548173ffffffffffffffffffffffffffffffffffffffff021916908373ffffffffffffffffffffffffffffffffffffffff1602179055505b600360009054906101000a900473ffffffffffffffffffffffffffffffffffffffff1673ffffffffffffffffffffffffffffffffffffffff1663c281d19e6040518163ffffffff167c0100000000000000000000000000000000000000000000000000000000028152600401602060405180830381600087803b15801561404957600080fd5b505af115801561405d573d6000803e3d6000fd5b505050506040513d602081101561407357600080fd5b8101908080519060200190929190505050905090565b6000606060008060008693506000925060009150600090505b835181101561435e5760307f01000000000000000000000000000000000000000000000000000000000000000284828151811015156140dd57fe5b9060200101517f010000000000000000000000000000000000000000000000000000000000000090047f0100000000000000000000000000000000000000000000000000000000000000027effffffffffffffffffffffffffffffffffffffffffffffffffffffffffffff1916101580156141f5575060397f010000000000000000000000000000000000000000000000000000000000000002848281518110151561418557fe5b9060200101517f010000000000000000000000000000000000000000000000000000000000000090047f0100000000000000000000000000000000000000000000000000000000000000027effffffffffffffffffffffffffffffffffffffffffffffffffffffffffffff191611155b156142a657811561421857600086141561420e5761435e565b8580600190039650505b600a830292506030848281518110151561422e57fe5b9060200101517f010000000000000000000000000000000000000000000000000000000000000090047f0100000000000000000000000000000000000000000000000000000000000000027f010000000000000000000000000000000000000000000000000000000000000090040383019250614351565b602e7f01000000000000000000000000000000000000000000000000000000000000000284828151811015156142d857fe5b9060200101517f010000000000000000000000000000000000000000000000000000000000000090047f0100000000000000000000000000000000000000000000000000000000000000027effffffffffffffffffffffffffffffffffffffffffffffffffffffffffffff1916141561435057600191505b5b80806001019150506140a2565b60008611156143705785600a0a830292505b8294505050505092915050565b3073ffffffffffffffffffffffffffffffffffffffff16316143d76040805190810160405280600381526020017f55524c0000000000000000000000000000000000000000000000000000000000815250620249f06145ef565b1115614496577f46cb989ef9cef13e930e3b7f286225a086e716a90d63e0b7da85d310a9db0c9a60405180806020018281038252604b8152602001807f4f7261636c697a6520717565727920776173204e4f542073656e742c20706c6581526020017f6173652061646420736f6d652045544820746f20636f76657220666f7220746881526020017f652071756572792066656500000000000000000000000000000000000000000081525060600191505060405180910390a16145ec565b7f46cb989ef9cef13e930e3b7f286225a086e716a90d63e0b7da85d310a9db0c9a6040518080602001828103825260358152602001807f4f7261636c697a65207175657279207761732073656e742c207374616e64696e81526020017f6720627920666f722074686520616e737765722e2e000000000000000000000081525060400191505060405180910390a16145ea816040805190810160405280600381526020017f55524c0000000000000000000000000000000000000000000000000000000000815250608060405190810160405280604c81526020017f6a736f6e2868747470733a2f2f6170692e6b72616b656e2e636f6d2f302f707581526020017f626c69632f5469636b65723f706169723d455448555344292e726573756c742e81526020017f584554485a5553442e632e300000000000000000000000000000000000000000815250620249f061512c565b505b50565b600080600260009054906101000a900473ffffffffffffffffffffffffffffffffffffffff1673ffffffffffffffffffffffffffffffffffffffff1614806146615750600061465f600260009054906101000a900473ffffffffffffffffffffffffffffffffffffffff16615110565b145b1561467257614670600061511b565b505b600260009054906101000a900473ffffffffffffffffffffffffffffffffffffffff1673ffffffffffffffffffffffffffffffffffffffff166338cc48316040518163ffffffff167c0100000000000000000000000000000000000000000000000000000000028152600401602060405180830381600087803b1580156146f857600080fd5b505af115801561470c573d6000803e3d6000fd5b505050506040513d602081101561472257600080fd5b810190808051906020019092919050505073ffffffffffffffffffffffffffffffffffffffff16600360009054906101000a900473ffffffffffffffffffffffffffffffffffffffff1673ffffffffffffffffffffffffffffffffffffffff1614151561488b57600260009054906101000a900473ffffffffffffffffffffffffffffffffffffffff1673ffffffffffffffffffffffffffffffffffffffff166338cc48316040518163ffffffff167c0100000000000000000000000000000000000000000000000000000000028152600401602060405180830381600087803b15801561480f57600080fd5b505af1158015614823573d6000803e3d6000fd5b505050506040513d602081101561483957600080fd5b8101908080519060200190929190505050600360006101000a81548173ffffffffffffffffffffffffffffffffffffffff021916908373ffffffffffffffffffffffffffffffffffffffff1602179055505b600360009054906101000a900473ffffffffffffffffffffffffffffffffffffffff1673ffffffffffffffffffffffffffffffffffffffff16632ef3accc84846040518363ffffffff167c01000000000000000000000000000000000000000000000000000000000281526004018080602001838152602001828103825284818151815260200191508051906020019080838360005b8381101561493c578082015181840152602081019050614921565b50505050905090810190601f1680156149695780820380516001836020036101000a031916815260200191505b509350505050602060405180830381600087803b15801561498957600080fd5b505af115801561499d573d6000803e3d6000fd5b505050506040513d60208110156149b357600080fd5b8101908080519060200190929190505050905092915050565b6000806000600260009054906101000a900473ffffffffffffffffffffffffffffffffffffffff1673ffffffffffffffffffffffffffffffffffffffff161480614a4057506000614a3e600260009054906101000a900473ffffffffffffffffffffffffffffffffffffffff16615110565b145b15614a5157614a4f600061511b565b505b600260009054906101000a900473ffffffffffffffffffffffffffffffffffffffff1673ffffffffffffffffffffffffffffffffffffffff166338cc48316040518163ffffffff167c0100000000000000000000000000000000000000000000000000000000028152600401602060405180830381600087803b158015614ad757600080fd5b505af1158015614aeb573d6000803e3d6000fd5b505050506040513d6020811015614b0157600080fd5b810190808051906020019092919050505073ffffffffffffffffffffffffffffffffffffffff16600360009054906101000a900473ffffffffffffffffffffffffffffffffffffffff1673ffffffffffffffffffffffffffffffffffffffff16141515614c6a57600260009054906101000a900473ffffffffffffffffffffffffffffffffffffffff1673ffffffffffffffffffffffffffffffffffffffff166338cc48316040518163ffffffff167c0100000000000000000000000000000000000000000000000000000000028152600401602060405180830381600087803b158015614bee57600080fd5b505af1158015614c02573d6000803e3d6000fd5b505050506040513d6020811015614c1857600080fd5b8101908080519060200190929190505050600360006101000a81548173ffffffffffffffffffffffffffffffffffffffff021916908373ffffffffffffffffffffffffffffffffffffffff1602179055505b600360009054906101000a900473ffffffffffffffffffffffffffffffffffffffff1673ffffffffffffffffffffffffffffffffffffffff16632ef3accc86856040518363ffffffff167c01000000000000000000000000000000000000000000000000000000000281526004018080602001838152602001828103825284818151815260200191508051906020019080838360005b83811015614d1b578082015181840152602081019050614d00565b50505050905090810190601f168015614d485780820380516001836020036101000a031916815260200191505b509350505050602060405180830381600087803b158015614d6857600080fd5b505af1158015614d7c573d6000803e3d6000fd5b505050506040513d6020811015614d9257600080fd5b81019080805190602001909291905050509050823a02670de0b6b3a764000001811115614dc55760006001029150614f78565b600360009054906101000a900473ffffffffffffffffffffffffffffffffffffffff1673ffffffffffffffffffffffffffffffffffffffff1663c51be90f8260008888886040518663ffffffff167c0100000000000000000000000000000000000000000000000000000000028152600401808581526020018060200180602001848152602001838103835286818151815260200191508051906020019080838360005b83811015614e84578082015181840152602081019050614e69565b50505050905090810190601f168015614eb15780820380516001836020036101000a031916815260200191505b50838103825285818151815260200191508051906020019080838360005b83811015614eea578082015181840152602081019050614ecf565b50505050905090810190601f168015614f175780820380516001836020036101000a031916815260200191505b5096505050505050506020604051808303818588803b158015614f3957600080fd5b505af1158015614f4d573d6000803e3d6000fd5b50505050506040513d6020811015614f6457600080fd5b810190808051906020019092919050505091505b509392505050565b60008183019050828110151515614f9657600080fd5b92915050565b6000601f60008473ffffffffffffffffffffffffffffffffffffffff1673ffffffffffffffffffffffffffffffffffffffff16815260200190815260200160002060006101000a81548160ff021916908315150217905550600960009054906101000a900473ffffffffffffffffffffffffffffffffffffffff1673ffffffffffffffffffffffffffffffffffffffff1663836cb5b1838360006040518463ffffffff167c0100000000000000000000000000000000000000000000000000000000028152600401808473ffffffffffffffffffffffffffffffffffffffff1673ffffffffffffffffffffffffffffffffffffffff168152602001838152602001821515151581526020019350505050602060405180830381600087803b1580156150c657600080fd5b505af11580156150da573d6000803e3d6000fd5b505050506040513d60208110156150f057600080fd5b8101908080519060200190929190505050151561510c57600080fd5b5050565b6000813b9050919050565b60006151256156e0565b9050919050565b6000806000600260009054906101000a900473ffffffffffffffffffffffffffffffffffffffff1673ffffffffffffffffffffffffffffffffffffffff1614806151a05750600061519e600260009054906101000a900473ffffffffffffffffffffffffffffffffffffffff16615110565b145b156151b1576151af600061511b565b505b600260009054906101000a900473ffffffffffffffffffffffffffffffffffffffff1673ffffffffffffffffffffffffffffffffffffffff166338cc48316040518163ffffffff167c0100000000000000000000000000000000000000000000000000000000028152600401602060405180830381600087803b15801561523757600080fd5b505af115801561524b573d6000803e3d6000fd5b505050506040513d602081101561526157600080fd5b810190808051906020019092919050505073ffffffffffffffffffffffffffffffffffffffff16600360009054906101000a900473ffffffffffffffffffffffffffffffffffffffff1673ffffffffffffffffffffffffffffffffffffffff161415156153ca57600260009054906101000a900473ffffffffffffffffffffffffffffffffffffffff1673ffffffffffffffffffffffffffffffffffffffff166338cc48316040518163ffffffff167c0100000000000000000000000000000000000000000000000000000000028152600401602060405180830381600087803b15801561534e57600080fd5b505af1158015615362573d6000803e3d6000fd5b505050506040513d602081101561537857600080fd5b8101908080519060200190929190505050600360006101000a81548173ffffffffffffffffffffffffffffffffffffffff021916908373ffffffffffffffffffffffffffffffffffffffff1602179055505b600360009054906101000a900473ffffffffffffffffffffffffffffffffffffffff1673ffffffffffffffffffffffffffffffffffffffff16632ef3accc86856040518363ffffffff167c01000000000000000000000000000000000000000000000000000000000281526004018080602001838152602001828103825284818151815260200191508051906020019080838360005b8381101561547b578082015181840152602081019050615460565b50505050905090810190601f1680156154a85780820380516001836020036101000a031916815260200191505b509350505050602060405180830381600087803b1580156154c857600080fd5b505af11580156154dc573d6000803e3d6000fd5b505050506040513d60208110156154f257600080fd5b81019080805190602001909291905050509050823a02670de0b6b3a76400000181111561552557600060010291506156d7565b600360009054906101000a900473ffffffffffffffffffffffffffffffffffffffff1673ffffffffffffffffffffffffffffffffffffffff1663c51be90f82888888886040518663ffffffff167c0100000000000000000000000000000000000000000000000000000000028152600401808581526020018060200180602001848152602001838103835286818151815260200191508051906020019080838360005b838110156155e35780820151818401526020810190506155c8565b50505050905090810190601f1680156156105780820380516001836020036101000a031916815260200191505b50838103825285818151815260200191508051906020019080838360005b8381101561564957808201518184015260208101905061562e565b50505050905090810190601f1680156156765780820380516001836020036101000a031916815260200191505b5096505050505050506020604051808303818588803b15801561569857600080fd5b505af11580156156ac573d6000803e3d6000fd5b50505050506040513d60208110156156c357600080fd5b810190808051906020019092919050505091505b50949350505050565b600080615700731d3b2638a7cc9f2cb3d298a3da7a90b67e5506ed615110565b11156157a257731d3b2638a7cc9f2cb3d298a3da7a90b67e5506ed600260006101000a81548173ffffffffffffffffffffffffffffffffffffffff021916908373ffffffffffffffffffffffffffffffffffffffff1602179055506157996040805190810160405280600b81526020017f6574685f6d61696e6e6574000000000000000000000000000000000000000000815250615b76565b60019050615b73565b60006157c173c03a2615d5efaf5f49f60b7bb6583eaec212fdf1615110565b11156158635773c03a2615d5efaf5f49f60b7bb6583eaec212fdf1600260006101000a81548173ffffffffffffffffffffffffffffffffffffffff021916908373ffffffffffffffffffffffffffffffffffffffff16021790555061585a6040805190810160405280600c81526020017f6574685f726f707374656e330000000000000000000000000000000000000000815250615b76565b60019050615b73565b600061588273b7a07bcf2ba2f2703b24c0691b5278999c59ac7e615110565b11156159245773b7a07bcf2ba2f2703b24c0691b5278999c59ac7e600260006101000a81548173ffffffffffffffffffffffffffffffffffffffff021916908373ffffffffffffffffffffffffffffffffffffffff16021790555061591b6040805190810160405280600981526020017f6574685f6b6f76616e0000000000000000000000000000000000000000000000815250615b76565b60019050615b73565b600061594373146500cfd35b22e4a392fe0adc06de1a1368ed48615110565b11156159e55773146500cfd35b22e4a392fe0adc06de1a1368ed48600260006101000a81548173ffffffffffffffffffffffffffffffffffffffff021916908373ffffffffffffffffffffffffffffffffffffffff1602179055506159dc6040805190810160405280600b81526020017f6574685f72696e6b656279000000000000000000000000000000000000000000815250615b76565b60019050615b73565b6000615a04736f485c8bf6fc43ea212e93bbf8ce046c7f1cb475615110565b1115615a6857736f485c8bf6fc43ea212e93bbf8ce046c7f1cb475600260006101000a81548173ffffffffffffffffffffffffffffffffffffffff021916908373ffffffffffffffffffffffffffffffffffffffff16021790555060019050615b73565b6000615a877320e12a1f859b3feae5fb2a0a32c18f5a65555bbf615110565b1115615aeb577320e12a1f859b3feae5fb2a0a32c18f5a65555bbf600260006101000a81548173ffffffffffffffffffffffffffffffffffffffff021916908373ffffffffffffffffffffffffffffffffffffffff16021790555060019050615b73565b6000615b0a7351efaf4c8b3c9afbd5ab9f4bbc82784ab6ef8faa615110565b1115615b6e577351efaf4c8b3c9afbd5ab9f4bbc82784ab6ef8faa600260006101000a81548173ffffffffffffffffffffffffffffffffffffffff021916908373ffffffffffffffffffffffffffffffffffffffff16021790555060019050615b73565b600090505b90565b8060049080519060200190615b8c929190615b90565b5050565b828054600181600116156101000203166002900490600052602060002090601f016020900481019282601f10615bd157805160ff1916838001178555615bff565b82800160010185558215615bff579182015b82811115615bfe578251825591602001919060010190615be3565b5b509050615c0c9190615c10565b5090565b615c3291905b80821115615c2e576000816000905550600101615c16565b5090565b905600a165627a7a72305820a7efd8047dcbea6b28dfedf8639f29a6e4cf85425279bfcc9bf527aaa624612c0029",
  "source": "pragma solidity  0.4.24;\nimport \"./SafeMath.sol\";\nimport \"./Owned.sol\";\nimport \"./Oraclize.sol\";\n\ncontract PexoToken {\n    function transfer (address, uint) public;\n    function burnTokensForSale() external returns (bool);\n    function saleTransfer(address,uint256,bool) external returns (bool);\n    function finalize() external returns (bool);\n}\n\n\ncontract Crowdsale is Owned, usingOraclize { \n  \n  using SafeMath for uint256;\n  uint256 public ethPrice; // 1 Ether price in USD cents.\n  uint256 constant CUSTOM_GASLIMIT = 150000;\n  uint256 public updateTime = 0;\n  // end oraclize variables\n\n  //Oraclize events\n  event LogConstructorInitiated(string nextStep);\n  event newOraclizeQuery(string description);\n  event newPriceTicker(bytes32 myid, string price, bytes proof);\n  // End oraclize events\n\n  // The token being sold\n  PexoToken public token;\n\n  uint256 public hardCap = 7100000000;//71 million USD in cents \n  uint256 public softCap = 700000000; //7 million USD in cents. \n\n  uint256 public tokensForSale = 180000000 * 1 ether;//180 million tokens\n  uint256 public tokensForPrivateSale = 80000000 * 1 ether;//80 million tokens\n  uint256 public tokensForPublicSale = 100000000 * 1 ether;// 100 million tokens\n\n  uint256 public privateSaletokenSold = 0;\n  uint256 public publicSaleRoundOneTokenSold = 0; \n  uint256 public publicSaleRoundTwoTokenSold = 0;\n  uint256 public publicSaleRoundThreeTokenSold = 0;\n  uint256 public publicSaleRoundFourTokenSold = 0;\n  uint256 public publicSaleRoundFiveTokenSold = 0;  \n  \n\n  // Address where funds are collected\n  address public wallet;\n\n\n  uint256 public discountPublicSaleRoundOne = 75;\n  uint256 public discountPublicSaleRoundTwo = 40;\n  uint256 public discountPublicSaleRoundThree = 20;\n  uint256 public discountPublicSaleRoundFour = 10;\n  uint256 public discountPublicSaleRoundFive = 0;\n  \n  bool public crowdSaleStarted = false;\n\n  // Amount of wei raised\n  uint256 public totalRaisedInCents;\n  \n\n  enum Stages {CrowdSaleNotStarted, Pause, PrivateSaleStart,PrivateSaleEnd,PublicSaleRoundOneStart,PublicSaleRoundOneEnd,PublicSaleRoundTwoStart,PublicSaleRoundTwoEnd, PublicSaleRoundThreeStart, PublicSaleRoundThreeEnd, PublicSaleRoundFourStart, PublicSaleRoundFourEnd, PublicSaleRoundFiveStart, PublicSaleRoundFiveEnd}\n  Stages currentStage;\n  Stages previousStage;\n  bool public Paused;\n\n   // adreess vs state mapping (1 for exists , zero default);\n   mapping (address => bool) public whitelistedContributors;\n   mapping (address => bool) public PrivateSaleInvestor;\n  \n   modifier CrowdsaleStarted(){\n      require(crowdSaleStarted);\n      _;\n   }\n \n    /**\n    * Event for token purchase logging\n    * @param purchaser who paid for the tokens\n    * @param beneficiary who got the tokens\n    * @param value weis paid for purchase\n    * @param amount amount of tokens purchased\n    */\n    event TokenPurchase(address indexed purchaser, address indexed beneficiary, uint256 value, uint256 amount);\n\n    /**\n    *@dev initializes the crowdsale contract \n    * @param _newOwner Address who has special power to change the ether price in cents according to the market price\n    * @param _wallet Address where collected funds will be forwarded to\n    * @param _token Address of the token being sold\n    *  @param _ethPriceInCents ether price in cents\n    */\n    constructor(address _newOwner, address _wallet, PexoToken _token,uint256 _ethPriceInCents) Owned(_newOwner) public {\n        require(_wallet != address(0));\n        require(_token != address(0));\n        require(_ethPriceInCents > 0);\n        wallet = _wallet;\n        owner = _newOwner;\n        token = _token;\n        ethPrice = _ethPriceInCents; //ethPrice in cents\n        currentStage = Stages.CrowdSaleNotStarted;\n        // oraclize_setProof(proofType_TLSNotary | proofStorage_IPFS);\n        // LogConstructorInitiated(\"Constructor was initiated. Call 'update()' to send the Oraclize Query.\");\n    }\n    \n    /**\n    * @dev fallback function ***DO NOT OVERRIDE***\n    */\n    function () external payable {\n    \n     if(msg.sender != owner){\n        buyTokens(msg.sender); \n     }\n     else{\n     revert();\n     }\n     \n    }\n\n    /**\n    * @dev whitelist addresses of investors.\n    * @param addrs ,array of addresses of investors to be whitelisted\n    * Note:= Array length must be less than 200.\n    */\n    function authorizeKyc(address[] addrs) public onlyOwner returns (bool success) {\n        uint arrayLength = addrs.length;\n        for (uint x = 0; x < arrayLength; x++) \n        {\n            whitelistedContributors[addrs[x]] = true;\n        }\n        return true;\n    }\n    \n    // Begin : oraclize related functions \n    function __callback(bytes32 myid, string result, bytes proof) public {\n        if (msg.sender != oraclize_cbAddress()) revert();\n        ethPrice = parseInt(result, 2);\n        emit newPriceTicker(myid, result, proof); //event\n        if (updateTime > 0) updateAfter(updateTime);\n    }\n\n    function update() public onlyOwner {\n        if (updateTime > 0) updateTime = 0;\n        if (oraclize_getPrice(\"URL\", CUSTOM_GASLIMIT) > this.balance) {\n            emit newOraclizeQuery(\"Oraclize query was NOT sent, please add some ETH to cover for the query fee\"); //event\n        } else {\n            emit newOraclizeQuery(\"Oraclize query was sent, standing by for the answer..\"); //event\n            oraclize_query(\"URL\", \"json(https://api.kraken.com/0/public/Ticker?pair=ETHUSD).result.XETHZUSD.c.0\", CUSTOM_GASLIMIT);\n        }\n    }\n\n    function updatePeriodically(uint256 _updateTime) public onlyOwner {\n        updateTime = _updateTime;\n        if (oraclize_getPrice(\"URL\", CUSTOM_GASLIMIT) > this.balance) {\n            emit newOraclizeQuery(\"Oraclize query was NOT sent, please add some ETH to cover for the query fee\");\n        } else {\n            emit newOraclizeQuery(\"Oraclize query was sent, standing by for the answer..\");\n            oraclize_query(\"URL\", \"json(https://api.kraken.com/0/public/Ticker?pair=ETHUSD).result.XETHZUSD.c.0\", CUSTOM_GASLIMIT);\n        }\n    }\n\n    function updateAfter(uint256 _updateTime) internal {\n        if (oraclize_getPrice(\"URL\", CUSTOM_GASLIMIT) > this.balance) {\n            emit newOraclizeQuery(\"Oraclize query was NOT sent, please add some ETH to cover for the query fee\");\n        } else {\n            emit newOraclizeQuery(\"Oraclize query was sent, standing by for the answer..\");\n            oraclize_query(_updateTime, \"URL\", \"json(https://api.kraken.com/0/public/Ticker?pair=ETHUSD).result.XETHZUSD.c.0\", CUSTOM_GASLIMIT);\n        }\n    }\n\n    // END : oraclize related functions \n\n    /**\n    * @dev calling this function will pause the sale\n    */\n    \n    function pause() public onlyOwner {\n      require(Paused == false);\n      require(crowdSaleStarted == true);\n      previousStage=currentStage;\n      currentStage=Stages.Pause;\n      Paused = true;\n    }\n  \n    function restartSale() public onlyOwner {\n      require(currentStage == Stages.Pause);\n      currentStage=previousStage;\n      Paused = false;\n    }\n\n    function startPrivateSale() public onlyOwner {\n      require(!crowdSaleStarted);\n      crowdSaleStarted = true;\n      currentStage = Stages.PrivateSaleStart;\n    }\n\n    function endPrivateSale() public onlyOwner {\n\n      require(currentStage == Stages.PrivateSaleStart);\n      currentStage = Stages.PrivateSaleEnd;\n\n    }\n\n    function startPublicSaleRoundOne() public onlyOwner {\n\n    require(currentStage == Stages.PrivateSaleEnd);\n    currentStage = Stages.PublicSaleRoundOneStart;\n   \n    }\n\n    function endPublicSaleRoundOne() public onlyOwner {\n\n    require(currentStage == Stages.PublicSaleRoundOneStart);\n    currentStage = Stages.PublicSaleRoundOneEnd;\n   \n    }\n\n    function startPublicSaleRoundTwo() public onlyOwner {\n    require(currentStage == Stages.PublicSaleRoundOneEnd);\n    currentStage = Stages.PublicSaleRoundTwoStart;\n    }\n\n    function endPublicSaleRoundTwo() public onlyOwner {\n    require(currentStage == Stages.PublicSaleRoundTwoStart);\n    currentStage = Stages.PublicSaleRoundTwoEnd;\n    }\n\n    function startPublicSaleRoundThree() public onlyOwner {\n    require(currentStage == Stages.PublicSaleRoundTwoEnd);\n    currentStage = Stages.PublicSaleRoundThreeStart;\n    }\n\n    function endPublicSaleRoundThree() public onlyOwner {\n    require(currentStage == Stages.PublicSaleRoundThreeStart);\n    currentStage = Stages.PublicSaleRoundThreeEnd;\n    \n    }\n    \n    function startPublicSaleRoundFour() public onlyOwner {\n    require(currentStage == Stages.PublicSaleRoundThreeEnd);\n    currentStage = Stages.PublicSaleRoundFourStart;\n    }\n\n    function endPublicSaleRoundFour() public onlyOwner {\n    require(currentStage == Stages.PublicSaleRoundFourStart);\n    currentStage = Stages.PublicSaleRoundFourEnd;\n    \n    }\n    \n    function startPublicSaleRoundFive() public onlyOwner {\n    require(currentStage == Stages.PublicSaleRoundFourEnd);\n    currentStage = Stages.PublicSaleRoundFiveStart;\n    }\n\n    function endPublicSaleRoundFive() public onlyOwner {\n    require(currentStage == Stages.PublicSaleRoundFiveStart);\n    currentStage = Stages.PublicSaleRoundFiveEnd;\n    \n    }\n\n\n    function getStage() public view returns (string) {\n    if (currentStage == Stages.PrivateSaleStart) return 'Private Sale Start';\n    else if (currentStage == Stages.PrivateSaleEnd) return 'Private Sale End';\n    else if (currentStage == Stages.PublicSaleRoundOneStart) return 'Public Sale Round One Start';\n    else if (currentStage == Stages.PublicSaleRoundOneEnd) return 'Public Sale Round One End';\n    else if (currentStage == Stages.PublicSaleRoundTwoStart) return 'Public Sale Round Two Start';\n    else if (currentStage == Stages.PublicSaleRoundTwoEnd) return 'Public Sale Round Two End';\n    else if (currentStage == Stages.PublicSaleRoundThreeStart) return 'Public Sale Round Three Start';\n    else if (currentStage == Stages.PublicSaleRoundThreeEnd) return 'Public Sale Round Three End';\n    else if (currentStage == Stages.PublicSaleRoundFourStart) return 'Public Sale Round Four Start';\n    else if (currentStage == Stages.PublicSaleRoundFourEnd) return 'Public Sale Round Four End';\n    else if (currentStage == Stages.PublicSaleRoundFiveStart) return 'Public Sale Round Five Start';    \n    else if (currentStage == Stages.PublicSaleRoundFiveEnd) return 'Public Sale Round Five End';   \n    else if (currentStage == Stages.Pause) return 'paused';\n    else if (currentStage == Stages.CrowdSaleNotStarted) return 'CrowdSale Not Started';    \n    }\n    \n    function sendPrivateSaleTokens(address _beneficiary,uint256 _usdCents,uint256 privateSaleTokensPerDollar)  CrowdsaleStarted onlyOwner public{\n     \n     require(_beneficiary != address(0) && privateSaleTokensPerDollar > 0);\n     require(Paused != true);\n     require(currentStage == Stages.PrivateSaleStart);\n     totalRaisedInCents = totalRaisedInCents.add(_usdCents);\n     require(totalRaisedInCents <= hardCap);\n     uint256 tokens;\n     tokens = _usdCents.div(100).mul(privateSaleTokensPerDollar * 1 ether);\n     privateSaletokenSold = privateSaletokenSold.add(tokens);\n     require (privateSaletokenSold <= tokensForPrivateSale);\n     PrivateSaleInvestor[_beneficiary] = true;\n     require(token.saleTransfer(_beneficiary, tokens, true)); \n\n   }\n   \n   /**\n   * @dev sets the value of ether price in cents.Can be called only by the owner account.\n   * @param _ethPriceInCents price in cents .\n   */\n   function setEthPriceInCents(uint _ethPriceInCents) onlyOwner public returns(bool) {\n        ethPrice = _ethPriceInCents;\n        return true;\n    }\n\n   /**\n   * @param _beneficiary Address performing the token purchase\n   */\n   function buyTokens(address _beneficiary) CrowdsaleStarted public payable {\n    require(whitelistedContributors[_beneficiary] == true );\n    require(Paused != true);\n    uint256 weiAmount = msg.value;\n    require(weiAmount > 0);    \n    uint256 usdCents = weiAmount.mul(ethPrice).div(1 ether); \n    _preValidatePurchase(usdCents);\n    // calculate token amount to be created\n    uint256 tokens = _getTokenAmount(usdCents);\n    _validateCapLimits(usdCents);\n    _processPurchase(_beneficiary,tokens);\n    wallet.transfer(msg.value);\n    emit TokenPurchase(msg.sender, _beneficiary, weiAmount, tokens);\n   }\n  \n   /**\n   * @dev Validation of an incoming purchase. Use require statemens to revert state when conditions are not met. Use super to concatenate validations.\n   * @param _usdCents Value in usdincents involved in the purchase\n   */\n   function _preValidatePurchase(uint256 _usdCents) internal pure { \n\n       require(_usdCents >= 10000);\n\n    }\n    \n    /**\n    * @dev Validation of the capped restrictions.\n    * @param _cents cents amount\n    */\n\n    function _validateCapLimits(uint256 _cents) internal {\n     \n      totalRaisedInCents = totalRaisedInCents.add(_cents);\n      require(totalRaisedInCents <= hardCap);\n   }\n   \n   /**\n   * @dev Source of tokens. Override this method to modify the way in which the crowdsale ultimately gets and sends its tokens.\n   * @param _beneficiary Address performing the token purchase\n   * @param _tokenAmount Number of tokens to be emitted\n   */\n   function _deliverTokens(address _beneficiary, uint256 _tokenAmount) internal {\n    \n       PrivateSaleInvestor[_beneficiary] = false;\n       require(token.saleTransfer(_beneficiary, _tokenAmount, false));    \n\n   }\n\n   /**\n   * @dev Executed when a purchase has been validated and is ready to be executed. Not necessarily emits/sends tokens.\n   * @param _beneficiary Address receiving the tokens\n   * @param _tokenAmount Number of tokens to be purchased\n   */\n   function _processPurchase(address _beneficiary, uint256 _tokenAmount) internal {\n    _deliverTokens(_beneficiary, _tokenAmount);\n   }\n  \n\n    /**\n    * @param _usdCents Value in usd cents to be converted into tokens\n    * @return Number of tokens that can be purchased with the specified _usdCents\n    */\n    function _getTokenAmount(uint256 _usdCents) CrowdsaleStarted internal returns (uint256) {\n    uint256 tokens;\n    uint256 publicSaleTokens;    \n     \n      if (currentStage == Stages.PublicSaleRoundOneStart) {\n         \n        publicSaleTokens = _usdCents.div(25).mul(1 ether);          \n        tokens = publicSaleTokens;\n        publicSaleRoundOneTokenSold = publicSaleRoundOneTokenSold.add(tokens);\n        require(publicSaleRoundOneTokenSold <= tokensForPublicSale.div(5));\n      }\n      else if (currentStage == Stages.PublicSaleRoundTwoStart) {\n\n         publicSaleTokens = _usdCents.div(60).mul(1 ether);          \n         tokens = publicSaleTokens;\n         publicSaleRoundTwoTokenSold = publicSaleRoundTwoTokenSold.add(tokens);         \n         require(publicSaleRoundTwoTokenSold <= tokensForPublicSale.div(5));         \n      }\n      else if (currentStage == Stages.PublicSaleRoundThreeStart) {\n\n         publicSaleTokens = _usdCents.div(80).mul(1 ether);          \n         tokens = publicSaleTokens;\n         publicSaleRoundThreeTokenSold = publicSaleRoundThreeTokenSold.add(tokens);         \n         require(publicSaleRoundThreeTokenSold <= tokensForPublicSale.div(5));                  \n      }\n      else if (currentStage == Stages.PublicSaleRoundFourStart) {\n\n         publicSaleTokens = _usdCents.div(90).mul(1 ether);          \n         tokens = publicSaleTokens;\n         publicSaleRoundFourTokenSold = publicSaleRoundFourTokenSold.add(tokens);         \n         require(publicSaleRoundFourTokenSold <= tokensForPublicSale.div(5));         \n      }\n      else if (currentStage == Stages.PublicSaleRoundFiveStart) {\n\n         publicSaleTokens = _usdCents.div(100).mul(1 ether);          \n         tokens = publicSaleTokens;\n         publicSaleRoundFiveTokenSold = publicSaleRoundFiveTokenSold.add(tokens);         \n         require(publicSaleRoundFiveTokenSold <= tokensForPublicSale.div(5));         \n\n      }\n      \n    \n      return tokens;\n    }\n    \n    function discountInCurrentSale() public view returns (uint256)\n    {\n\n    if (currentStage == Stages.PublicSaleRoundOneStart) \n    return discountPublicSaleRoundOne;\n    \n    else if (currentStage == Stages.PublicSaleRoundTwoStart) \n    return discountPublicSaleRoundTwo;\n    \n    else if (currentStage == Stages.PublicSaleRoundThreeStart)\n    return discountPublicSaleRoundThree;\n    \n    else if (currentStage == Stages.PublicSaleRoundFourStart) \n    return discountPublicSaleRoundFour;\n    \n    else if (currentStage == Stages.PublicSaleRoundFiveStart) \n    return discountPublicSaleRoundFive;    \n    \n    }\n    \n    function tokenAmount(uint256 _usdCents) CrowdsaleStarted public view returns (uint256) {\n\n    uint256 tokens;\n    uint256 publicSaleTokens;    \n      if (currentStage == Stages.PublicSaleRoundOneStart) {\n \n        publicSaleTokens = _usdCents.div(25).mul(1 ether);          \n        tokens = publicSaleTokens;\n      }\n      else if (currentStage == Stages.PublicSaleRoundTwoStart) {\n\n        publicSaleTokens = _usdCents.div(60).mul(1 ether);          \n        tokens = publicSaleTokens;\n        \n      }\n      else if (currentStage == Stages.PublicSaleRoundThreeStart) {\n\n        publicSaleTokens = _usdCents.div(80).mul(1 ether);          \n        tokens = publicSaleTokens;\n\n      }\n      else if (currentStage == Stages.PublicSaleRoundFourStart) {\n\n        publicSaleTokens = _usdCents.div(90).mul(1 ether);          \n        tokens = publicSaleTokens;\n\n      }\n      else if (currentStage == Stages.PublicSaleRoundFiveStart) {\n\n        publicSaleTokens = _usdCents.div(100).mul(1 ether);          \n        tokens = publicSaleTokens;\n\n      }\n      \n    \n      return tokens;\n    }\n\n    /**\n    * @dev burn the unsold tokens.\n    */\n    function burnTokens() public onlyOwner {\n        require(currentStage == Stages.PublicSaleRoundFiveEnd);\n        require(token.burnTokensForSale());\n    }\n        \n    /**\n    * @dev finalize the crowdsale.After finalizing ,tokens transfer can be done.\n    */\n    function finalizeSale() public  onlyOwner {\n        require(currentStage == Stages.PublicSaleRoundFiveEnd);\n        require(token.finalize());\n        \n    }\n\n    function isSoftCapReached() public view returns(bool){\n        if(totalRaisedInCents >= softCap){\n            return true;\n        }\n        else {\n            return false;\n        }\n    }\n    //cents    \n    function tokenPriceInCurrentSale() public view returns(uint256)\n    {\n    \n    if (currentStage == Stages.PublicSaleRoundOneStart) \n    return 25;\n    \n    else if (currentStage == Stages.PublicSaleRoundTwoStart) \n    return 60;\n    \n    else if (currentStage == Stages.PublicSaleRoundThreeStart)\n    return 80;\n    \n    else if (currentStage == Stages.PublicSaleRoundFourStart) \n    return 90;\n    \n    else if (currentStage == Stages.PublicSaleRoundFiveStart) \n    return 100;\n   \n    }\n    //Usd\n    function minimumInvestmentInCurrentSale() public view returns(uint256)\n    {   \n    if (currentStage == Stages.PublicSaleRoundOneStart) \n    return 10000;\n    \n    else if (currentStage == Stages.PublicSaleRoundTwoStart) \n    return 10000;\n    \n    else if (currentStage == Stages.PublicSaleRoundThreeStart)\n    return 10000;\n    \n    else if (currentStage == Stages.PublicSaleRoundFourStart) \n    return 10000;\n    \n    else if (currentStage == Stages.PublicSaleRoundFiveStart) \n    return 10000;\n    }\n\n}",
  "sourcePath": "/home/abhi_21094/Projects/Pexo/contracts/Crowdsale.sol",
  "compiler": {
    "name": "solc",
    "version": "0.4.24+commit.e67f0147.Emscripten.clang"
  },
  "schemaVersion": "2.0.1",
  "updatedAt": "2019-02-27T12:41:54.220Z"
}